:0400000026EF09F0EE
:10100000005072657373203120666F7220426C75D8
:10101000652C203220666F72205265642C203320AC
:10102000666F7220477265656E202E2E2E0D00575A
:10103000656C636F6D6520746F20434F33323620CB
:101040004C6162330D004E6F206F75747075740DB6
:1010500000000BEC09F02F0E086E100E096EBCECB0
:1010600008F0060E0B6E130E0A6EAE0EE82EFED7BB
:101070000A2EFCD70B2EFAD7010E086E100E096E41
:10108000BCEC08F0D9EC08F00C6E82EF08F08A8016
:10109000150E0B6E4B0E0A6EBE0EE82EFED70A2EF4
:1010A000FCD70B2EFAD700F000F08A9042EF08F040
:1010B0008A82150E0B6E4B0E0A6EBE0EE82EFED700
:1010C0000A2EFCD70B2EFAD700F000F08A9242EFDE
:1010D00008F08A84150E0B6E4B0E0A6EBE0EE82EBB
:1010E000FED70A2EFCD70B2EFAD700F000F08A9418
:1010F00042EF08F0460E086E100E096EBCEC08F0C8
:1011000042EF08F00C500A6E0B6A0B50000AD8B47C
:101110008CEF08F07AEF08F00A50310AD8B447EFA4
:1011200008F0030AD8B458EF08F0010AD8B469EF00
:1011300008F07AEF08F000EF00F0080EB86E900E9D
:10114000AB6E240EAC6ECF0EAF6E000EB06E000E06
:10115000076E000E086E1CEC09F0000E076E000E04
:10116000086E17EC09F0000E076E000E086E21ECF9
:1011700009F0000E0D6E1200C9EF08F008C0F6FF6E
:1011800009C0F7FFF86A0800F55000EC09F0084ABA
:10119000092A08C0F6FF09C0F7FFF86A0800F550F1
:1011A0000009D8A4D6EF08F0D8EF08F0BEEF08F099
:1011B00012009EAADEEF08F0E0EF08F0D9EF08F089
:1011C000000E0D6EABA2E7EF08F0E9EF08F0EBEFD1
:1011D00008F0AB98AB88AE501200000E896E000E7E
:1011E0008A6E000E8B6E9268F80E936EBF0E946E30
:1011F0001F0E7E6E1F0E7F6E000E7C6EF18E120033
:10120000076E9EA806EF09F008EF09F001EF09F05C
:1012100007C0ADFF1200EDEC08F012EC09F09DECF8
:1012200008F01200620ED36E000E9B6E120007C013
:1012300003F008C004F0120007C005F008C006F073
:10124000120007C001F008C002F012000D6A000190
:0412500029EF08F08A
:020000040020DA
:08000000FFFFFFFFFFFFFFFF00
:020000040030CA
:0E000000FF081F1EFF8985FF0FC00FE00F4095
:00000001FF
